{"contracts/crud/Controller_1767860569.sol":{"Controller_1767860569":{"abi":[{"inputs":[],"stateMutability":"nonpayable","type":"constructor"},{"anonymous":false,"inputs":[{"indexed":true,"internalType":"address","name":"user","type":"address"},{"indexed":false,"internalType":"bool","name":"status","type":"bool"}],"name":"AuthorizationUpdated","type":"event"},{"anonymous":false,"inputs":[{"indexed":false,"internalType":"uint256","name":"id","type":"uint256"},{"indexed":false,"internalType":"address","name":"creator","type":"address"}],"name":"Created","type":"event"},{"anonymous":false,"inputs":[{"indexed":false,"internalType":"bool","name":"isActive","type":"bool"}],"name":"StatusChanged","type":"event"},{"inputs":[{"internalType":"address","name":"_user","type":"address"},{"internalType":"bool","name":"_status","type":"bool"}],"name":"authorize","outputs":[],"stateMutability":"nonpayable","type":"function"},{"inputs":[{"internalType":"address","name":"","type":"address"}],"name":"authorized","outputs":[{"internalType":"bool","name":"","type":"bool"}],"stateMutability":"view","type":"function"},{"inputs":[],"name":"creator","outputs":[{"internalType":"address","name":"","type":"address"}],"stateMutability":"view","type":"function"},{"inputs":[],"name":"getInfo","outputs":[{"internalType":"uint256","name":"","type":"uint256"},{"internalType":"address","name":"","type":"address"},{"internalType":"string","name":"","type":"string"},{"internalType":"bool","name":"","type":"bool"}],"stateMutability":"view","type":"function"},{"inputs":[],"name":"id","outputs":[{"internalType":"uint256","name":"","type":"uint256"}],"stateMutability":"view","type":"function"},{"inputs":[],"name":"isActive","outputs":[{"internalType":"bool","name":"","type":"bool"}],"stateMutability":"view","type":"function"},{"inputs":[],"name":"name","outputs":[{"internalType":"string","name":"","type":"string"}],"stateMutability":"view","type":"function"},{"inputs":[{"internalType":"string","name":"_name","type":"string"}],"name":"setName","outputs":[],"stateMutability":"nonpayable","type":"function"},{"inputs":[],"name":"toggleActive","outputs":[],"stateMutability":"nonpayable","type":"function"}],"evm":{"bytecode":{"linkReferences":{},"object":"608060405234801561001057600080fd5b50600180546001600160a01b0319163390811782556003805460ff19908116841790915560008281526004602090815260409182902080549093169094179091558051428152928301919091527f7757890bcab34d673dfca6b71df1b57f75a2fe4231d6e8de726caf534ab1fdd6910160405180910390a161079e806100976000396000f3fe608060405234801561001057600080fd5b50600436106100935760003560e01c80632d1fb389116100665780632d1fb389146101045780635a9b0b8914610117578063af640d0f1461012f578063b918161114610146578063c47f00271461016957600080fd5b806302d05d3f1461009857806306fdde03146100c857806322f3e2d4146100dd57806329c68dc1146100fa575b600080fd5b6001546100ab906001600160a01b031681565b6040516001600160a01b0390911681526020015b60405180910390f35b6100d061017c565b6040516100bf9190610464565b6003546100ea9060ff1681565b60405190151581526020016100bf565b61010261020a565b005b61010261011236600461049a565b61028f565b61011f61031d565b6040516100bf94939291906104d6565b61013860005481565b6040519081526020016100bf565b6100ea610154366004610513565b60046020526000908152604090205460ff1681565b610102610177366004610544565b6103df565b60028054610189906105f5565b80601f01602080910402602001604051908101604052809291908181526020018280546101b5906105f5565b80156102025780601f106101d757610100808354040283529160200191610202565b820191906000526020600020905b8154815290600101906020018083116101e557829003601f168201915b505050505081565b3360009081526004602052604090205460ff166102425760405162461bcd60e51b81526004016102399061062f565b60405180910390fd5b6003805460ff8082161560ff1990921682179092556040519116151581527f4dcbe1841ee9bd9c888e46c0b35574429b1c0f1071806180028dee2f9a1064309060200160405180910390a1565b3360009081526004602052604090205460ff166102be5760405162461bcd60e51b81526004016102399061062f565b6001600160a01b038216600081815260046020908152604091829020805460ff191685151590811790915591519182527f2c59b8f31260880424e870332281eba93ddfef67e37d699cebe5a7ba89f7a8a6910160405180910390a25050565b60008054600154600354600280548594606094869491936001600160a01b0390911692909160ff16908290610351906105f5565b80601f016020809104026020016040519081016040528092919081815260200182805461037d906105f5565b80156103ca5780601f1061039f576101008083540402835291602001916103ca565b820191906000526020600020905b8154815290600101906020018083116103ad57829003601f168201915b50505050509150935093509350935090919293565b3360009081526004602052604090205460ff1661040e5760405162461bcd60e51b81526004016102399061062f565b600261041a82826106a8565b5050565b6000815180845260005b8181101561044457602081850181015186830182015201610428565b506000602082860101526020601f19601f83011685010191505092915050565b602081526000610477602083018461041e565b9392505050565b80356001600160a01b038116811461049557600080fd5b919050565b600080604083850312156104ad57600080fd5b6104b68361047e565b9150602083013580151581146104cb57600080fd5b809150509250929050565b8481526001600160a01b03841660208201526080604082018190526000906105009083018561041e565b9050821515606083015295945050505050565b60006020828403121561052557600080fd5b6104778261047e565b634e487b7160e01b600052604160045260246000fd5b60006020828403121561055657600080fd5b813567ffffffffffffffff8082111561056e57600080fd5b818401915084601f83011261058257600080fd5b8135818111156105945761059461052e565b604051601f8201601f19908116603f011681019083821181831017156105bc576105bc61052e565b816040528281528760208487010111156105d557600080fd5b826020860160208301376000928101602001929092525095945050505050565b600181811c9082168061060957607f821691505b60208210810361062957634e487b7160e01b600052602260045260246000fd5b50919050565b6020808252600e908201526d139bdd08185d5d1a1bdc9a5e995960921b604082015260600190565b601f8211156106a3576000816000526020600020601f850160051c810160208610156106805750805b601f850160051c820191505b8181101561069f5782815560010161068c565b5050505b505050565b815167ffffffffffffffff8111156106c2576106c261052e565b6106d6816106d084546105f5565b84610657565b602080601f83116001811461070b57600084156106f35750858301515b600019600386901b1c1916600185901b17855561069f565b600085815260208120601f198616915b8281101561073a5788860151825594840194600190910190840161071b565b50858210156107585787850151600019600388901b60f8161c191681555b5050505050600190811b0190555056fea2646970667358221220d72652ec94325e80918521aba0b4d271aaaa07137a0d2bf8f27c0fa883786af764736f6c63430008180033","opcodes":"PUSH1 0x80 PUSH1 0x40 MSTORE CALLVALUE DUP1 ISZERO PUSH2 0x10 JUMPI PUSH1 0x0 DUP1 REVERT JUMPDEST POP PUSH1 0x1 DUP1 SLOAD PUSH1 0x1 PUSH1 0x1 PUSH1 0xA0 SHL SUB NOT AND CALLER SWAP1 DUP2 OR DUP3 SSTORE PUSH1 0x3 DUP1 SLOAD PUSH1 0xFF NOT SWAP1 DUP2 AND DUP5 OR SWAP1 SWAP2 SSTORE PUSH1 0x0 DUP3 DUP2 MSTORE PUSH1 0x4 PUSH1 0x20 SWAP1 DUP2 MSTORE PUSH1 0x40 SWAP2 DUP3 SWAP1 KECCAK256 DUP1 SLOAD SWAP1 SWAP4 AND SWAP1 SWAP5 OR SWAP1 SWAP2 SSTORE DUP1 MLOAD TIMESTAMP DUP2 MSTORE SWAP3 DUP4 ADD SWAP2 SWAP1 SWAP2 MSTORE PUSH32 0x7757890BCAB34D673DFCA6B71DF1B57F75A2FE4231D6E8DE726CAF534AB1FDD6 SWAP2 ADD PUSH1 0x40 MLOAD DUP1 SWAP2 SUB SWAP1 LOG1 PUSH2 0x79E DUP1 PUSH2 0x97 PUSH1 0x0 CODECOPY PUSH1 0x0 RETURN INVALID PUSH1 0x80 PUSH1 0x40 MSTORE CALLVALUE DUP1 ISZERO PUSH2 0x10 JUMPI PUSH1 0x0 DUP1 REVERT JUMPDEST POP PUSH1 0x4 CALLDATASIZE LT PUSH2 0x93 JUMPI PUSH1 0x0 CALLDATALOAD PUSH1 0xE0 SHR DUP1 PUSH4 0x2D1FB389 GT PUSH2 0x66 JUMPI DUP1 PUSH4 0x2D1FB389 EQ PUSH2 0x104 JUMPI DUP1 PUSH4 0x5A9B0B89 EQ PUSH2 0x117 JUMPI DUP1 PUSH4 0xAF640D0F EQ PUSH2 0x12F JUMPI DUP1 PUSH4 0xB9181611 EQ PUSH2 0x146 JUMPI DUP1 PUSH4 0xC47F0027 EQ PUSH2 0x169 JUMPI PUSH1 0x0 DUP1 REVERT JUMPDEST DUP1 PUSH4 0x2D05D3F EQ PUSH2 0x98 JUMPI DUP1 PUSH4 0x6FDDE03 EQ PUSH2 0xC8 JUMPI DUP1 PUSH4 0x22F3E2D4 EQ PUSH2 0xDD JUMPI DUP1 PUSH4 0x29C68DC1 EQ PUSH2 0xFA JUMPI JUMPDEST PUSH1 0x0 DUP1 REVERT JUMPDEST PUSH1 0x1 SLOAD PUSH2 0xAB SWAP1 PUSH1 0x1 PUSH1 0x1 PUSH1 0xA0 SHL SUB AND DUP2 JUMP JUMPDEST PUSH1 0x40 MLOAD PUSH1 0x1 PUSH1 0x1 PUSH1 0xA0 SHL SUB SWAP1 SWAP2 AND DUP2 MSTORE PUSH1 0x20 ADD JUMPDEST PUSH1 0x40 MLOAD DUP1 SWAP2 SUB SWAP1 RETURN JUMPDEST PUSH2 0xD0 PUSH2 0x17C JUMP JUMPDEST PUSH1 0x40 MLOAD PUSH2 0xBF SWAP2 SWAP1 PUSH2 0x464 JUMP JUMPDEST PUSH1 0x3 SLOAD PUSH2 0xEA SWAP1 PUSH1 0xFF AND DUP2 JUMP JUMPDEST PUSH1 0x40 MLOAD SWAP1 ISZERO ISZERO DUP2 MSTORE PUSH1 0x20 ADD PUSH2 0xBF JUMP JUMPDEST PUSH2 0x102 PUSH2 0x20A JUMP JUMPDEST STOP JUMPDEST PUSH2 0x102 PUSH2 0x112 CALLDATASIZE PUSH1 0x4 PUSH2 0x49A JUMP JUMPDEST PUSH2 0x28F JUMP JUMPDEST PUSH2 0x11F PUSH2 0x31D JUMP JUMPDEST PUSH1 0x40 MLOAD PUSH2 0xBF SWAP5 SWAP4 SWAP3 SWAP2 SWAP1 PUSH2 0x4D6 JUMP JUMPDEST PUSH2 0x138 PUSH1 0x0 SLOAD DUP2 JUMP JUMPDEST PUSH1 0x40 MLOAD SWAP1 DUP2 MSTORE PUSH1 0x20 ADD PUSH2 0xBF JUMP JUMPDEST PUSH2 0xEA PUSH2 0x154 CALLDATASIZE PUSH1 0x4 PUSH2 0x513 JUMP JUMPDEST PUSH1 0x4 PUSH1 0x20 MSTORE PUSH1 0x0 SWAP1 DUP2 MSTORE PUSH1 0x40 SWAP1 KECCAK256 SLOAD PUSH1 0xFF AND DUP2 JUMP JUMPDEST PUSH2 0x102 PUSH2 0x177 CALLDATASIZE PUSH1 0x4 PUSH2 0x544 JUMP JUMPDEST PUSH2 0x3DF JUMP JUMPDEST PUSH1 0x2 DUP1 SLOAD PUSH2 0x189 SWAP1 PUSH2 0x5F5 JUMP JUMPDEST DUP1 PUSH1 0x1F ADD PUSH1 0x20 DUP1 SWAP2 DIV MUL PUSH1 0x20 ADD PUSH1 0x40 MLOAD SWAP1 DUP2 ADD PUSH1 0x40 MSTORE DUP1 SWAP3 SWAP2 SWAP1 DUP2 DUP2 MSTORE PUSH1 0x20 ADD DUP3 DUP1 SLOAD PUSH2 0x1B5 SWAP1 PUSH2 0x5F5 JUMP JUMPDEST DUP1 ISZERO PUSH2 0x202 JUMPI DUP1 PUSH1 0x1F LT PUSH2 0x1D7 JUMPI PUSH2 0x100 DUP1 DUP4 SLOAD DIV MUL DUP4 MSTORE SWAP2 PUSH1 0x20 ADD SWAP2 PUSH2 0x202 JUMP JUMPDEST DUP3 ADD SWAP2 SWAP1 PUSH1 0x0 MSTORE PUSH1 0x20 PUSH1 0x0 KECCAK256 SWAP1 JUMPDEST DUP2 SLOAD DUP2 MSTORE SWAP1 PUSH1 0x1 ADD SWAP1 PUSH1 0x20 ADD DUP1 DUP4 GT PUSH2 0x1E5 JUMPI DUP3 SWAP1 SUB PUSH1 0x1F AND DUP3 ADD SWAP2 JUMPDEST POP POP POP POP POP DUP2 JUMP JUMPDEST CALLER PUSH1 0x0 SWAP1 DUP2 MSTORE PUSH1 0x4 PUSH1 0x20 MSTORE PUSH1 0x40 SWAP1 KECCAK256 SLOAD PUSH1 0xFF AND PUSH2 0x242 JUMPI PUSH1 0x40 MLOAD PUSH3 0x461BCD PUSH1 0xE5 SHL DUP2 MSTORE PUSH1 0x4 ADD PUSH2 0x239 SWAP1 PUSH2 0x62F JUMP JUMPDEST PUSH1 0x40 MLOAD DUP1 SWAP2 SUB SWAP1 REVERT JUMPDEST PUSH1 0x3 DUP1 SLOAD PUSH1 0xFF DUP1 DUP3 AND ISZERO PUSH1 0xFF NOT SWAP1 SWAP3 AND DUP3 OR SWAP1 SWAP3 SSTORE PUSH1 0x40 MLOAD SWAP2 AND ISZERO ISZERO DUP2 MSTORE PUSH32 0x4DCBE1841EE9BD9C888E46C0B35574429B1C0F1071806180028DEE2F9A106430 SWAP1 PUSH1 0x20 ADD PUSH1 0x40 MLOAD DUP1 SWAP2 SUB SWAP1 LOG1 JUMP JUMPDEST CALLER PUSH1 0x0 SWAP1 DUP2 MSTORE PUSH1 0x4 PUSH1 0x20 MSTORE PUSH1 0x40 SWAP1 KECCAK256 SLOAD PUSH1 0xFF AND PUSH2 0x2BE JUMPI PUSH1 0x40 MLOAD PUSH3 0x461BCD PUSH1 0xE5 SHL DUP2 MSTORE PUSH1 0x4 ADD PUSH2 0x239 SWAP1 PUSH2 0x62F JUMP JUMPDEST PUSH1 0x1 PUSH1 0x1 PUSH1 0xA0 SHL SUB DUP3 AND PUSH1 0x0 DUP2 DUP2 MSTORE PUSH1 0x4 PUSH1 0x20 SWAP1 DUP2 MSTORE PUSH1 0x40 SWAP2 DUP3 SWAP1 KECCAK256 DUP1 SLOAD PUSH1 0xFF NOT AND DUP6 ISZERO ISZERO SWAP1 DUP2 OR SWAP1 SWAP2 SSTORE SWAP2 MLOAD SWAP2 DUP3 MSTORE PUSH32 0x2C59B8F31260880424E870332281EBA93DDFEF67E37D699CEBE5A7BA89F7A8A6 SWAP2 ADD PUSH1 0x40 MLOAD DUP1 SWAP2 SUB SWAP1 LOG2 POP POP JUMP JUMPDEST PUSH1 0x0 DUP1 SLOAD PUSH1 0x1 SLOAD PUSH1 0x3 SLOAD PUSH1 0x2 DUP1 SLOAD DUP6 SWAP5 PUSH1 0x60 SWAP5 DUP7 SWAP5 SWAP2 SWAP4 PUSH1 0x1 PUSH1 0x1 PUSH1 0xA0 SHL SUB SWAP1 SWAP2 AND SWAP3 SWAP1 SWAP2 PUSH1 0xFF AND SWAP1 DUP3 SWAP1 PUSH2 0x351 SWAP1 PUSH2 0x5F5 JUMP JUMPDEST DUP1 PUSH1 0x1F ADD PUSH1 0x20 DUP1 SWAP2 DIV MUL PUSH1 0x20 ADD PUSH1 0x40 MLOAD SWAP1 DUP2 ADD PUSH1 0x40 MSTORE DUP1 SWAP3 SWAP2 SWAP1 DUP2 DUP2 MSTORE PUSH1 0x20 ADD DUP3 DUP1 SLOAD PUSH2 0x37D SWAP1 PUSH2 0x5F5 JUMP JUMPDEST DUP1 ISZERO PUSH2 0x3CA JUMPI DUP1 PUSH1 0x1F LT PUSH2 0x39F JUMPI PUSH2 0x100 DUP1 DUP4 SLOAD DIV MUL DUP4 MSTORE SWAP2 PUSH1 0x20 ADD SWAP2 PUSH2 0x3CA JUMP JUMPDEST DUP3 ADD SWAP2 SWAP1 PUSH1 0x0 MSTORE PUSH1 0x20 PUSH1 0x0 KECCAK256 SWAP1 JUMPDEST DUP2 SLOAD DUP2 MSTORE SWAP1 PUSH1 0x1 ADD SWAP1 PUSH1 0x20 ADD DUP1 DUP4 GT PUSH2 0x3AD JUMPI DUP3 SWAP1 SUB PUSH1 0x1F AND DUP3 ADD SWAP2 JUMPDEST POP POP POP POP POP SWAP2 POP SWAP4 POP SWAP4 POP SWAP4 POP SWAP4 POP SWAP1 SWAP2 SWAP3 SWAP4 JUMP JUMPDEST CALLER PUSH1 0x0 SWAP1 DUP2 MSTORE PUSH1 0x4 PUSH1 0x20 MSTORE PUSH1 0x40 SWAP1 KECCAK256 SLOAD PUSH1 0xFF AND PUSH2 0x40E JUMPI PUSH1 0x40 MLOAD PUSH3 0x461BCD PUSH1 0xE5 SHL DUP2 MSTORE PUSH1 0x4 ADD PUSH2 0x239 SWAP1 PUSH2 0x62F JUMP JUMPDEST PUSH1 0x2 PUSH2 0x41A DUP3 DUP3 PUSH2 0x6A8 JUMP JUMPDEST POP POP JUMP JUMPDEST PUSH1 0x0 DUP2 MLOAD DUP1 DUP5 MSTORE PUSH1 0x0 JUMPDEST DUP2 DUP2 LT ISZERO PUSH2 0x444 JUMPI PUSH1 0x20 DUP2 DUP6 ADD DUP2 ADD MLOAD DUP7 DUP4 ADD DUP3 ADD MSTORE ADD PUSH2 0x428 JUMP JUMPDEST POP PUSH1 0x0 PUSH1 0x20 DUP3 DUP7 ADD ADD MSTORE PUSH1 0x20 PUSH1 0x1F NOT PUSH1 0x1F DUP4 ADD AND DUP6 ADD ADD SWAP2 POP POP SWAP3 SWAP2 POP POP JUMP JUMPDEST PUSH1 0x20 DUP2 MSTORE PUSH1 0x0 PUSH2 0x477 PUSH1 0x20 DUP4 ADD DUP5 PUSH2 0x41E JUMP JUMPDEST SWAP4 SWAP3 POP POP POP JUMP JUMPDEST DUP1 CALLDATALOAD PUSH1 0x1 PUSH1 0x1 PUSH1 0xA0 SHL SUB DUP2 AND DUP2 EQ PUSH2 0x495 JUMPI PUSH1 0x0 DUP1 REVERT JUMPDEST SWAP2 SWAP1 POP JUMP JUMPDEST PUSH1 0x0 DUP1 PUSH1 0x40 DUP4 DUP6 SUB SLT ISZERO PUSH2 0x4AD JUMPI PUSH1 0x0 DUP1 REVERT JUMPDEST PUSH2 0x4B6 DUP4 PUSH2 0x47E JUMP JUMPDEST SWAP2 POP PUSH1 0x20 DUP4 ADD CALLDATALOAD DUP1 ISZERO ISZERO DUP2 EQ PUSH2 0x4CB JUMPI PUSH1 0x0 DUP1 REVERT JUMPDEST DUP1 SWAP2 POP POP SWAP3 POP SWAP3 SWAP1 POP JUMP JUMPDEST DUP5 DUP2 MSTORE PUSH1 0x1 PUSH1 0x1 PUSH1 0xA0 SHL SUB DUP5 AND PUSH1 0x20 DUP3 ADD MSTORE PUSH1 0x80 PUSH1 0x40 DUP3 ADD DUP2 SWAP1 MSTORE PUSH1 0x0 SWAP1 PUSH2 0x500 SWAP1 DUP4 ADD DUP6 PUSH2 0x41E JUMP JUMPDEST SWAP1 POP DUP3 ISZERO ISZERO PUSH1 0x60 DUP4 ADD MSTORE SWAP6 SWAP5 POP POP POP POP POP JUMP JUMPDEST PUSH1 0x0 PUSH1 0x20 DUP3 DUP5 SUB SLT ISZERO PUSH2 0x525 JUMPI PUSH1 0x0 DUP1 REVERT JUMPDEST PUSH2 0x477 DUP3 PUSH2 0x47E JUMP JUMPDEST PUSH4 0x4E487B71 PUSH1 0xE0 SHL PUSH1 0x0 MSTORE PUSH1 0x41 PUSH1 0x4 MSTORE PUSH1 0x24 PUSH1 0x0 REVERT JUMPDEST PUSH1 0x0 PUSH1 0x20 DUP3 DUP5 SUB SLT ISZERO PUSH2 0x556 JUMPI PUSH1 0x0 DUP1 REVERT JUMPDEST DUP2 CALLDATALOAD PUSH8 0xFFFFFFFFFFFFFFFF DUP1 DUP3 GT ISZERO PUSH2 0x56E JUMPI PUSH1 0x0 DUP1 REVERT JUMPDEST DUP2 DUP5 ADD SWAP2 POP DUP5 PUSH1 0x1F DUP4 ADD SLT PUSH2 0x582 JUMPI PUSH1 0x0 DUP1 REVERT JUMPDEST DUP2 CALLDATALOAD DUP2 DUP2 GT ISZERO PUSH2 0x594 JUMPI PUSH2 0x594 PUSH2 0x52E JUMP JUMPDEST PUSH1 0x40 MLOAD PUSH1 0x1F DUP3 ADD PUSH1 0x1F NOT SWAP1 DUP2 AND PUSH1 0x3F ADD AND DUP2 ADD SWAP1 DUP4 DUP3 GT DUP2 DUP4 LT OR ISZERO PUSH2 0x5BC JUMPI PUSH2 0x5BC PUSH2 0x52E JUMP JUMPDEST DUP2 PUSH1 0x40 MSTORE DUP3 DUP2 MSTORE DUP8 PUSH1 0x20 DUP5 DUP8 ADD ADD GT ISZERO PUSH2 0x5D5 JUMPI PUSH1 0x0 DUP1 REVERT JUMPDEST DUP3 PUSH1 0x20 DUP7 ADD PUSH1 0x20 DUP4 ADD CALLDATACOPY PUSH1 0x0 SWAP3 DUP2 ADD PUSH1 0x20 ADD SWAP3 SWAP1 SWAP3 MSTORE POP SWAP6 SWAP5 POP POP POP POP POP JUMP JUMPDEST PUSH1 0x1 DUP2 DUP2 SHR SWAP1 DUP3 AND DUP1 PUSH2 0x609 JUMPI PUSH1 0x7F DUP3 AND SWAP2 POP JUMPDEST PUSH1 0x20 DUP3 LT DUP2 SUB PUSH2 0x629 JUMPI PUSH4 0x4E487B71 PUSH1 0xE0 SHL PUSH1 0x0 MSTORE PUSH1 0x22 PUSH1 0x4 MSTORE PUSH1 0x24 PUSH1 0x0 REVERT JUMPDEST POP SWAP2 SWAP1 POP JUMP JUMPDEST PUSH1 0x20 DUP1 DUP3 MSTORE PUSH1 0xE SWAP1 DUP3 ADD MSTORE PUSH14 0x139BDD08185D5D1A1BDC9A5E9959 PUSH1 0x92 SHL PUSH1 0x40 DUP3 ADD MSTORE PUSH1 0x60 ADD SWAP1 JUMP JUMPDEST PUSH1 0x1F DUP3 GT ISZERO PUSH2 0x6A3 JUMPI PUSH1 0x0 DUP2 PUSH1 0x0 MSTORE PUSH1 0x20 PUSH1 0x0 KECCAK256 PUSH1 0x1F DUP6 ADD PUSH1 0x5 SHR DUP2 ADD PUSH1 0x20 DUP7 LT ISZERO PUSH2 0x680 JUMPI POP DUP1 JUMPDEST PUSH1 0x1F DUP6 ADD PUSH1 0x5 SHR DUP3 ADD SWAP2 POP JUMPDEST DUP2 DUP2 LT ISZERO PUSH2 0x69F JUMPI DUP3 DUP2 SSTORE PUSH1 0x1 ADD PUSH2 0x68C JUMP JUMPDEST POP POP POP JUMPDEST POP POP POP JUMP JUMPDEST DUP2 MLOAD PUSH8 0xFFFFFFFFFFFFFFFF DUP2 GT ISZERO PUSH2 0x6C2 JUMPI PUSH2 0x6C2 PUSH2 0x52E JUMP JUMPDEST PUSH2 0x6D6 DUP2 PUSH2 0x6D0 DUP5 SLOAD PUSH2 0x5F5 JUMP JUMPDEST DUP5 PUSH2 0x657 JUMP JUMPDEST PUSH1 0x20 DUP1 PUSH1 0x1F DUP4 GT PUSH1 0x1 DUP2 EQ PUSH2 0x70B JUMPI PUSH1 0x0 DUP5 ISZERO PUSH2 0x6F3 JUMPI POP DUP6 DUP4 ADD MLOAD JUMPDEST PUSH1 0x0 NOT PUSH1 0x3 DUP7 SWAP1 SHL SHR NOT AND PUSH1 0x1 DUP6 SWAP1 SHL OR DUP6 SSTORE PUSH2 0x69F JUMP JUMPDEST PUSH1 0x0 DUP6 DUP2 MSTORE PUSH1 0x20 DUP2 KECCAK256 PUSH1 0x1F NOT DUP7 AND SWAP2 JUMPDEST DUP3 DUP2 LT ISZERO PUSH2 0x73A JUMPI DUP9 DUP7 ADD MLOAD DUP3 SSTORE SWAP5 DUP5 ADD SWAP5 PUSH1 0x1 SWAP1 SWAP2 ADD SWAP1 DUP5 ADD PUSH2 0x71B JUMP JUMPDEST POP DUP6 DUP3 LT ISZERO PUSH2 0x758 JUMPI DUP8 DUP6 ADD MLOAD PUSH1 0x0 NOT PUSH1 0x3 DUP9 SWAP1 SHL PUSH1 0xF8 AND SHR NOT AND DUP2 SSTORE JUMPDEST POP POP POP POP POP PUSH1 0x1 SWAP1 DUP2 SHL ADD SWAP1 SSTORE POP JUMP INVALID LOG2 PUSH5 0x6970667358 0x22 SLT KECCAK256 0xD7 0x26 MSTORE 0xEC SWAP5 ORIGIN MCOPY DUP1 SWAP2 DUP6 0x21 0xAB LOG0 0xB4 0xD2 PUSH18 0xAAAA07137A0D2BF8F27C0FA883786AF76473 PUSH16 0x6C634300081800330000000000000000 "},"methodIdentifiers":{"authorize(address,bool)":"2d1fb389","authorized(address)":"b9181611","creator()":"02d05d3f","getInfo()":"5a9b0b89","id()":"af640d0f","isActive()":"22f3e2d4","name()":"06fdde03","setName(string)":"c47f0027","toggleActive()":"29c68dc1"}}}}}