{
  "_format": "hh-sol-artifact-1",
  "contractName": "UserRegistry",
  "sourceName": "contracts/crud/UserRegistry_1768050103.sol",
  "abi": [
    {
      "anonymous": false,
      "inputs": [
        {
          "indexed": true,
          "internalType": "uint256",
          "name": "userId",
          "type": "uint256"
        }
      ],
      "name": "UserActivated",
      "type": "event"
    },
    {
      "anonymous": false,
      "inputs": [
        {
          "indexed": true,
          "internalType": "uint256",
          "name": "userId",
          "type": "uint256"
        },
        {
          "indexed": false,
          "internalType": "string",
          "name": "name",
          "type": "string"
        },
        {
          "indexed": true,
          "internalType": "address",
          "name": "creator",
          "type": "address"
        }
      ],
      "name": "UserCreated",
      "type": "event"
    },
    {
      "anonymous": false,
      "inputs": [
        {
          "indexed": true,
          "internalType": "uint256",
          "name": "userId",
          "type": "uint256"
        }
      ],
      "name": "UserDeleted",
      "type": "event"
    },
    {
      "anonymous": false,
      "inputs": [
        {
          "indexed": true,
          "internalType": "uint256",
          "name": "userId",
          "type": "uint256"
        },
        {
          "indexed": false,
          "internalType": "string",
          "name": "name",
          "type": "string"
        }
      ],
      "name": "UserUpdated",
      "type": "event"
    },
    {
      "inputs": [
        {
          "internalType": "address",
          "name": "",
          "type": "address"
        }
      ],
      "name": "addressToUserId",
      "outputs": [
        {
          "internalType": "uint256",
          "name": "",
          "type": "uint256"
        }
      ],
      "stateMutability": "view",
      "type": "function"
    },
    {
      "inputs": [
        {
          "internalType": "string",
          "name": "_name",
          "type": "string"
        },
        {
          "internalType": "string",
          "name": "_email",
          "type": "string"
        }
      ],
      "name": "createUser",
      "outputs": [
        {
          "internalType": "uint256",
          "name": "",
          "type": "uint256"
        }
      ],
      "stateMutability": "nonpayable",
      "type": "function"
    },
    {
      "inputs": [
        {
          "internalType": "uint256",
          "name": "_userId",
          "type": "uint256"
        }
      ],
      "name": "deleteUser",
      "outputs": [],
      "stateMutability": "nonpayable",
      "type": "function"
    },
    {
      "inputs": [],
      "name": "getAllActiveUsers",
      "outputs": [
        {
          "components": [
            {
              "internalType": "uint256",
              "name": "id",
              "type": "uint256"
            },
            {
              "internalType": "string",
              "name": "name",
              "type": "string"
            },
            {
              "internalType": "string",
              "name": "email",
              "type": "string"
            },
            {
              "internalType": "bool",
              "name": "isActive",
              "type": "bool"
            },
            {
              "internalType": "uint256",
              "name": "createdAt",
              "type": "uint256"
            },
            {
              "internalType": "uint256",
              "name": "updatedAt",
              "type": "uint256"
            }
          ],
          "internalType": "struct UserRegistry.User[]",
          "name": "",
          "type": "tuple[]"
        }
      ],
      "stateMutability": "view",
      "type": "function"
    },
    {
      "inputs": [
        {
          "internalType": "uint256",
          "name": "_userId",
          "type": "uint256"
        }
      ],
      "name": "getUser",
      "outputs": [
        {
          "components": [
            {
              "internalType": "uint256",
              "name": "id",
              "type": "uint256"
            },
            {
              "internalType": "string",
              "name": "name",
              "type": "string"
            },
            {
              "internalType": "string",
              "name": "email",
              "type": "string"
            },
            {
              "internalType": "bool",
              "name": "isActive",
              "type": "bool"
            },
            {
              "internalType": "uint256",
              "name": "createdAt",
              "type": "uint256"
            },
            {
              "internalType": "uint256",
              "name": "updatedAt",
              "type": "uint256"
            }
          ],
          "internalType": "struct UserRegistry.User",
          "name": "",
          "type": "tuple"
        }
      ],
      "stateMutability": "view",
      "type": "function"
    },
    {
      "inputs": [
        {
          "internalType": "uint256",
          "name": "_userId",
          "type": "uint256"
        },
        {
          "internalType": "string",
          "name": "_name",
          "type": "string"
        },
        {
          "internalType": "string",
          "name": "_email",
          "type": "string"
        }
      ],
      "name": "updateUser",
      "outputs": [],
      "stateMutability": "nonpayable",
      "type": "function"
    },
    {
      "inputs": [],
      "name": "userCount",
      "outputs": [
        {
          "internalType": "uint256",
          "name": "",
          "type": "uint256"
        }
      ],
      "stateMutability": "view",
      "type": "function"
    },
    {
      "inputs": [
        {
          "internalType": "uint256",
          "name": "",
          "type": "uint256"
        }
      ],
      "name": "users",
      "outputs": [
        {
          "internalType": "uint256",
          "name": "id",
          "type": "uint256"
        },
        {
          "internalType": "string",
          "name": "name",
          "type": "string"
        },
        {
          "internalType": "string",
          "name": "email",
          "type": "string"
        },
        {
          "internalType": "bool",
          "name": "isActive",
          "type": "bool"
        },
        {
          "internalType": "uint256",
          "name": "createdAt",
          "type": "uint256"
        },
        {
          "internalType": "uint256",
          "name": "updatedAt",
          "type": "uint256"
        }
      ],
      "stateMutability": "view",
      "type": "function"
    }
  ],
  "bytecode": "0x608060405234801561001057600080fd5b50610f75806100206000396000f3fe608060405234801561001057600080fd5b50600436106100885760003560e01c80637b7c3a9b1161005b5780637b7c3a9b146100f857806387b162b51461010b578063b0467deb1461011e578063b5ffbbcc1461013e57600080fd5b806307973ccf1461008d578063365b98b2146100a957806338f14845146100ce5780634ed6bd1a146100e3575b600080fd5b61009660025481565b6040519081526020015b60405180910390f35b6100bc6100b7366004610a55565b61015e565b6040516100a096959493929190610ab4565b6100e16100dc366004610a55565b6102a9565b005b6100eb61032b565b6040516100a09190610b63565b6100e1610106366004610c6a565b6105da565b610096610119366004610cd7565b6106e5565b61013161012c366004610a55565b61087d565b6040516100a09190610d3b565b61009661014c366004610d55565b60016020526000908152604090205481565b6000602081905290815260409020805460018201805491929161018090610d7e565b80601f01602080910402602001604051908101604052809291908181526020018280546101ac90610d7e565b80156101f95780601f106101ce576101008083540402835291602001916101f9565b820191906000526020600020905b8154815290600101906020018083116101dc57829003601f168201915b50505050509080600201805461020e90610d7e565b80601f016020809104026020016040519081016040528092919081815260200182805461023a90610d7e565b80156102875780601f1061025c57610100808354040283529160200191610287565b820191906000526020600020905b81548152906001019060200180831161026a57829003601f168201915b5050505060038301546004840154600590940154929360ff9091169290915086565b6000811180156102bb57506002548111155b6102e05760405162461bcd60e51b81526004016102d790610db8565b60405180910390fd5b60008181526020819052604080822060038101805460ff19169055426005909101555182917f42a77abd0397855f875460bb511f41935bfa5f396b556d95717d8c2e08334aae91a250565b6060600060015b60025481116103755760008181526020819052604090206003015460ff1615610363578161035f81610dde565b9250505b8061036d81610dde565b915050610332565b5060008167ffffffffffffffff81111561039157610391610bc7565b6040519080825280602002602001820160405280156103fd57816020015b6103ea6040518060c0016040528060008152602001606081526020016060815260200160001515815260200160008152602001600081525090565b8152602001906001900390816103af5790505b509050600060015b60025481116105d15760008181526020819052604090206003015460ff16156105bf5760008181526020818152604091829020825160c0810190935280548352600181018054919284019161045990610d7e565b80601f016020809104026020016040519081016040528092919081815260200182805461048590610d7e565b80156104d25780601f106104a7576101008083540402835291602001916104d2565b820191906000526020600020905b8154815290600101906020018083116104b557829003601f168201915b505050505081526020016002820180546104eb90610d7e565b80601f016020809104026020016040519081016040528092919081815260200182805461051790610d7e565b80156105645780601f1061053957610100808354040283529160200191610564565b820191906000526020600020905b81548152906001019060200180831161054757829003601f168201915b5050509183525050600382015460ff16151560208201526004820154604082015260059091015460609091015283518490849081106105a5576105a5610e05565b602002602001018190525081806105bb90610dde565b9250505b806105c981610dde565b915050610405565b50909392505050565b6000831180156105ec57506002548311155b6106085760405162461bcd60e51b81526004016102d790610db8565b60008381526020819052604090206003015460ff166106595760405162461bcd60e51b815260206004820152600d60248201526c5573657220696e61637469766560981b60448201526064016102d7565b60008381526020819052604090206001016106748382610e6c565b5060008381526020819052604090206002016106908282610e6c565b5060008381526020819052604090819020426005909101555183907f5898c2fc7726f88f217cd77fc8d44127690540692e1c694c0c958efcecbe5d74906106d8908590610f2c565b60405180910390a2505050565b6000808351116107275760405162461bcd60e51b815260206004820152600d60248201526c13985b59481c995c5d5a5c9959609a1b60448201526064016102d7565b33600090815260016020526040902054156107725760405162461bcd60e51b815260206004820152600b60248201526a557365722065786973747360a81b60448201526064016102d7565b6002805490600061078283610dde565b90915550506040805160c0810182526002548082526020808301878152838501879052600160608501819052426080860181905260a086015260009384529183905293909120825181559251919291908201906107df9082610e6c565b50604082015160028201906107f49082610e6c565b50606082015160038201805460ff19169115159190911790556080820151600482015560a0909101516005909101556002543360008181526001602052604090819020839055519091907f1c81d7053f5e6f875e0d7b584d3354071899b7dc927e6d7b48b58caa90cf3de89061086b908790610f2c565b60405180910390a35060025492915050565b6108b86040518060c0016040528060008152602001606081526020016060815260200160001515815260200160008152602001600081525090565b6000821180156108ca57506002548211155b6108e65760405162461bcd60e51b81526004016102d790610db8565b60008281526020818152604091829020825160c0810190935280548352600181018054919284019161091790610d7e565b80601f016020809104026020016040519081016040528092919081815260200182805461094390610d7e565b80156109905780601f1061096557610100808354040283529160200191610990565b820191906000526020600020905b81548152906001019060200180831161097357829003601f168201915b505050505081526020016002820180546109a990610d7e565b80601f01602080910402602001604051908101604052809291908181526020018280546109d590610d7e565b8015610a225780601f106109f757610100808354040283529160200191610a22565b820191906000526020600020905b815481529060010190602001808311610a0557829003601f168201915b5050509183525050600382015460ff16151560208201526004820154604082015260059091015460609091015292915050565b600060208284031215610a6757600080fd5b5035919050565b6000815180845260005b81811015610a9457602081850181015186830182015201610a78565b506000602082860101526020601f19601f83011685010191505092915050565b86815260c060208201526000610acd60c0830188610a6e565b8281036040840152610adf8188610a6e565b95151560608401525050608081019290925260a0909101529392505050565b805182526000602082015160c06020850152610b1d60c0850182610a6e565b905060408301518482036040860152610b368282610a6e565b9150506060830151151560608501526080830151608085015260a083015160a08501528091505092915050565b600060208083016020845280855180835260408601915060408160051b87010192506020870160005b82811015610bba57603f19888603018452610ba8858351610afe565b94509285019290850190600101610b8c565b5092979650505050505050565b634e487b7160e01b600052604160045260246000fd5b600082601f830112610bee57600080fd5b813567ffffffffffffffff80821115610c0957610c09610bc7565b604051601f8301601f19908116603f01168101908282118183101715610c3157610c31610bc7565b81604052838152866020858801011115610c4a57600080fd5b836020870160208301376000602085830101528094505050505092915050565b600080600060608486031215610c7f57600080fd5b83359250602084013567ffffffffffffffff80821115610c9e57600080fd5b610caa87838801610bdd565b93506040860135915080821115610cc057600080fd5b50610ccd86828701610bdd565b9150509250925092565b60008060408385031215610cea57600080fd5b823567ffffffffffffffff80821115610d0257600080fd5b610d0e86838701610bdd565b93506020850135915080821115610d2457600080fd5b50610d3185828601610bdd565b9150509250929050565b602081526000610d4e6020830184610afe565b9392505050565b600060208284031215610d6757600080fd5b81356001600160a01b0381168114610d4e57600080fd5b600181811c90821680610d9257607f821691505b602082108103610db257634e487b7160e01b600052602260045260246000fd5b50919050565b6020808252600c908201526b24b73b30b634b2103ab9b2b960a11b604082015260600190565b600060018201610dfe57634e487b7160e01b600052601160045260246000fd5b5060010190565b634e487b7160e01b600052603260045260246000fd5b601f821115610e67576000816000526020600020601f850160051c81016020861015610e445750805b601f850160051c820191505b81811015610e6357828155600101610e50565b5050505b505050565b815167ffffffffffffffff811115610e8657610e86610bc7565b610e9a81610e948454610d7e565b84610e1b565b602080601f831160018114610ecf5760008415610eb75750858301515b600019600386901b1c1916600185901b178555610e63565b600085815260208120601f198616915b82811015610efe57888601518255948401946001909101908401610edf565b5085821015610f1c5787850151600019600388901b60f8161c191681555b5050505050600190811b01905550565b602081526000610d4e6020830184610a6e56fea2646970667358221220d4ad640bc3172a5c5afa05f85c06ff68233c33a6474d4ff790053ab715df22d264736f6c63430008180033",
  "linkReferences": {},
  "deployedLinkReferences": {}
}