{
  "_format": "hh-sol-artifact-1",
  "contractName": "Storage_1768116308",
  "sourceName": "contracts/crud/Storage_1768116308.sol",
  "abi": [
    {
      "inputs": [],
      "stateMutability": "nonpayable",
      "type": "constructor"
    },
    {
      "anonymous": false,
      "inputs": [
        {
          "indexed": true,
          "internalType": "address",
          "name": "user",
          "type": "address"
        },
        {
          "indexed": false,
          "internalType": "bool",
          "name": "status",
          "type": "bool"
        }
      ],
      "name": "AuthorizationUpdated",
      "type": "event"
    },
    {
      "anonymous": false,
      "inputs": [
        {
          "indexed": false,
          "internalType": "uint256",
          "name": "id",
          "type": "uint256"
        },
        {
          "indexed": false,
          "internalType": "address",
          "name": "creator",
          "type": "address"
        }
      ],
      "name": "Created",
      "type": "event"
    },
    {
      "anonymous": false,
      "inputs": [
        {
          "indexed": false,
          "internalType": "bool",
          "name": "isActive",
          "type": "bool"
        }
      ],
      "name": "StatusChanged",
      "type": "event"
    },
    {
      "inputs": [
        {
          "internalType": "address",
          "name": "_user",
          "type": "address"
        },
        {
          "internalType": "bool",
          "name": "_status",
          "type": "bool"
        }
      ],
      "name": "authorize",
      "outputs": [],
      "stateMutability": "nonpayable",
      "type": "function"
    },
    {
      "inputs": [
        {
          "internalType": "address",
          "name": "",
          "type": "address"
        }
      ],
      "name": "authorized",
      "outputs": [
        {
          "internalType": "bool",
          "name": "",
          "type": "bool"
        }
      ],
      "stateMutability": "view",
      "type": "function"
    },
    {
      "inputs": [],
      "name": "creator",
      "outputs": [
        {
          "internalType": "address",
          "name": "",
          "type": "address"
        }
      ],
      "stateMutability": "view",
      "type": "function"
    },
    {
      "inputs": [],
      "name": "getInfo",
      "outputs": [
        {
          "internalType": "uint256",
          "name": "",
          "type": "uint256"
        },
        {
          "internalType": "address",
          "name": "",
          "type": "address"
        },
        {
          "internalType": "string",
          "name": "",
          "type": "string"
        },
        {
          "internalType": "bool",
          "name": "",
          "type": "bool"
        }
      ],
      "stateMutability": "view",
      "type": "function"
    },
    {
      "inputs": [],
      "name": "id",
      "outputs": [
        {
          "internalType": "uint256",
          "name": "",
          "type": "uint256"
        }
      ],
      "stateMutability": "view",
      "type": "function"
    },
    {
      "inputs": [],
      "name": "isActive",
      "outputs": [
        {
          "internalType": "bool",
          "name": "",
          "type": "bool"
        }
      ],
      "stateMutability": "view",
      "type": "function"
    },
    {
      "inputs": [],
      "name": "name",
      "outputs": [
        {
          "internalType": "string",
          "name": "",
          "type": "string"
        }
      ],
      "stateMutability": "view",
      "type": "function"
    },
    {
      "inputs": [
        {
          "internalType": "string",
          "name": "_name",
          "type": "string"
        }
      ],
      "name": "setName",
      "outputs": [],
      "stateMutability": "nonpayable",
      "type": "function"
    },
    {
      "inputs": [],
      "name": "toggleActive",
      "outputs": [],
      "stateMutability": "nonpayable",
      "type": "function"
    }
  ],
  "bytecode": "0x608060405234801561001057600080fd5b50600180546001600160a01b0319163390811782556003805460ff19908116841790915560008281526004602090815260409182902080549093169094179091558051428152928301919091527f7757890bcab34d673dfca6b71df1b57f75a2fe4231d6e8de726caf534ab1fdd6910160405180910390a161079e806100976000396000f3fe608060405234801561001057600080fd5b50600436106100935760003560e01c80632d1fb389116100665780632d1fb389146101045780635a9b0b8914610117578063af640d0f1461012f578063b918161114610146578063c47f00271461016957600080fd5b806302d05d3f1461009857806306fdde03146100c857806322f3e2d4146100dd57806329c68dc1146100fa575b600080fd5b6001546100ab906001600160a01b031681565b6040516001600160a01b0390911681526020015b60405180910390f35b6100d061017c565b6040516100bf9190610464565b6003546100ea9060ff1681565b60405190151581526020016100bf565b61010261020a565b005b61010261011236600461049a565b61028f565b61011f61031d565b6040516100bf94939291906104d6565b61013860005481565b6040519081526020016100bf565b6100ea610154366004610513565b60046020526000908152604090205460ff1681565b610102610177366004610544565b6103df565b60028054610189906105f5565b80601f01602080910402602001604051908101604052809291908181526020018280546101b5906105f5565b80156102025780601f106101d757610100808354040283529160200191610202565b820191906000526020600020905b8154815290600101906020018083116101e557829003601f168201915b505050505081565b3360009081526004602052604090205460ff166102425760405162461bcd60e51b81526004016102399061062f565b60405180910390fd5b6003805460ff8082161560ff1990921682179092556040519116151581527f4dcbe1841ee9bd9c888e46c0b35574429b1c0f1071806180028dee2f9a1064309060200160405180910390a1565b3360009081526004602052604090205460ff166102be5760405162461bcd60e51b81526004016102399061062f565b6001600160a01b038216600081815260046020908152604091829020805460ff191685151590811790915591519182527f2c59b8f31260880424e870332281eba93ddfef67e37d699cebe5a7ba89f7a8a6910160405180910390a25050565b60008054600154600354600280548594606094869491936001600160a01b0390911692909160ff16908290610351906105f5565b80601f016020809104026020016040519081016040528092919081815260200182805461037d906105f5565b80156103ca5780601f1061039f576101008083540402835291602001916103ca565b820191906000526020600020905b8154815290600101906020018083116103ad57829003601f168201915b50505050509150935093509350935090919293565b3360009081526004602052604090205460ff1661040e5760405162461bcd60e51b81526004016102399061062f565b600261041a82826106a8565b5050565b6000815180845260005b8181101561044457602081850181015186830182015201610428565b506000602082860101526020601f19601f83011685010191505092915050565b602081526000610477602083018461041e565b9392505050565b80356001600160a01b038116811461049557600080fd5b919050565b600080604083850312156104ad57600080fd5b6104b68361047e565b9150602083013580151581146104cb57600080fd5b809150509250929050565b8481526001600160a01b03841660208201526080604082018190526000906105009083018561041e565b9050821515606083015295945050505050565b60006020828403121561052557600080fd5b6104778261047e565b634e487b7160e01b600052604160045260246000fd5b60006020828403121561055657600080fd5b813567ffffffffffffffff8082111561056e57600080fd5b818401915084601f83011261058257600080fd5b8135818111156105945761059461052e565b604051601f8201601f19908116603f011681019083821181831017156105bc576105bc61052e565b816040528281528760208487010111156105d557600080fd5b826020860160208301376000928101602001929092525095945050505050565b600181811c9082168061060957607f821691505b60208210810361062957634e487b7160e01b600052602260045260246000fd5b50919050565b6020808252600e908201526d139bdd08185d5d1a1bdc9a5e995960921b604082015260600190565b601f8211156106a3576000816000526020600020601f850160051c810160208610156106805750805b601f850160051c820191505b8181101561069f5782815560010161068c565b5050505b505050565b815167ffffffffffffffff8111156106c2576106c261052e565b6106d6816106d084546105f5565b84610657565b602080601f83116001811461070b57600084156106f35750858301515b600019600386901b1c1916600185901b17855561069f565b600085815260208120601f198616915b8281101561073a5788860151825594840194600190910190840161071b565b50858210156107585787850151600019600388901b60f8161c191681555b5050505050600190811b0190555056fea2646970667358221220e30286bbf01f7d64261a7daae3b64745a93e8427ed6eefdfbe8c6397e9a8122164736f6c63430008180033",
  "linkReferences": {},
  "deployedLinkReferences": {}
}