{
  "_format": "hh-sol-artifact-1",
  "contractName": "DataStorage",
  "sourceName": "contracts/crud/DataStorage_1768125483.sol",
  "abi": [
    {
      "anonymous": false,
      "inputs": [
        {
          "indexed": true,
          "internalType": "uint256",
          "name": "recordId",
          "type": "uint256"
        },
        {
          "indexed": false,
          "internalType": "bytes32",
          "name": "dataHash",
          "type": "bytes32"
        },
        {
          "indexed": false,
          "internalType": "address",
          "name": "creator",
          "type": "address"
        }
      ],
      "name": "RecordCreated",
      "type": "event"
    },
    {
      "anonymous": false,
      "inputs": [
        {
          "indexed": true,
          "internalType": "uint256",
          "name": "recordId",
          "type": "uint256"
        }
      ],
      "name": "RecordInvalidated",
      "type": "event"
    },
    {
      "anonymous": false,
      "inputs": [
        {
          "indexed": true,
          "internalType": "uint256",
          "name": "recordId",
          "type": "uint256"
        }
      ],
      "name": "RecordUpdated",
      "type": "event"
    },
    {
      "inputs": [
        {
          "internalType": "bytes32",
          "name": "_dataHash",
          "type": "bytes32"
        },
        {
          "internalType": "string",
          "name": "_metadata",
          "type": "string"
        }
      ],
      "name": "createRecord",
      "outputs": [
        {
          "internalType": "uint256",
          "name": "",
          "type": "uint256"
        }
      ],
      "stateMutability": "nonpayable",
      "type": "function"
    },
    {
      "inputs": [
        {
          "internalType": "address",
          "name": "_user",
          "type": "address"
        }
      ],
      "name": "getUserRecords",
      "outputs": [
        {
          "internalType": "uint256[]",
          "name": "",
          "type": "uint256[]"
        }
      ],
      "stateMutability": "view",
      "type": "function"
    },
    {
      "inputs": [
        {
          "internalType": "uint256",
          "name": "_recordId",
          "type": "uint256"
        }
      ],
      "name": "invalidateRecord",
      "outputs": [],
      "stateMutability": "nonpayable",
      "type": "function"
    },
    {
      "inputs": [],
      "name": "recordCount",
      "outputs": [
        {
          "internalType": "uint256",
          "name": "",
          "type": "uint256"
        }
      ],
      "stateMutability": "view",
      "type": "function"
    },
    {
      "inputs": [
        {
          "internalType": "uint256",
          "name": "",
          "type": "uint256"
        }
      ],
      "name": "records",
      "outputs": [
        {
          "internalType": "uint256",
          "name": "id",
          "type": "uint256"
        },
        {
          "internalType": "bytes32",
          "name": "dataHash",
          "type": "bytes32"
        },
        {
          "internalType": "string",
          "name": "metadata",
          "type": "string"
        },
        {
          "internalType": "address",
          "name": "creator",
          "type": "address"
        },
        {
          "internalType": "uint256",
          "name": "timestamp",
          "type": "uint256"
        },
        {
          "internalType": "bool",
          "name": "isValid",
          "type": "bool"
        }
      ],
      "stateMutability": "view",
      "type": "function"
    },
    {
      "inputs": [
        {
          "internalType": "uint256",
          "name": "_recordId",
          "type": "uint256"
        },
        {
          "internalType": "string",
          "name": "_metadata",
          "type": "string"
        }
      ],
      "name": "updateRecord",
      "outputs": [],
      "stateMutability": "nonpayable",
      "type": "function"
    },
    {
      "inputs": [
        {
          "internalType": "address",
          "name": "",
          "type": "address"
        },
        {
          "internalType": "uint256",
          "name": "",
          "type": "uint256"
        }
      ],
      "name": "userRecords",
      "outputs": [
        {
          "internalType": "uint256",
          "name": "",
          "type": "uint256"
        }
      ],
      "stateMutability": "view",
      "type": "function"
    }
  ],
  "bytecode": "0x608060405234801561001057600080fd5b5061093f806100206000396000f3fe608060405234801561001057600080fd5b506004361061007d5760003560e01c80635bbe446a1161005b5780635bbe446a146100e557806388cdf2e0146100f8578063900407bc14610119578063e85d28b91461012257600080fd5b80631c63146614610082578063344610671461009757806351096b02146100c5575b600080fd5b610095610090366004610601565b610135565b005b6100aa6100a5366004610648565b61022e565b6040516100bc96959493929190610661565b60405180910390f35b6100d86100d3366004610707565b6102fa565b6040516100bc9190610729565b6100956100f3366004610648565b610366565b61010b610106366004610601565b610400565b6040519081526020016100bc565b61010b60025481565b61010b61013036600461076d565b61052d565b6000828152602081905260409020600301546001600160a01b031633146101915760405162461bcd60e51b815260206004820152600b60248201526a2737ba1031b932b0ba37b960a91b60448201526064015b60405180910390fd5b60008281526020819052604090206005015460ff166101e35760405162461bcd60e51b815260206004820152600e60248201526d149958dbdc99081a5b9d985b1a5960921b6044820152606401610188565b60008281526020819052604090206002016101fe8282610822565b5060405182907fc79bc4f37c11e412901fdfd9d3760462e6729f3ab3d5813e9eb8eda2deecb7bc90600090a25050565b6000602081905290815260409020805460018201546002830180549293919261025690610797565b80601f016020809104026020016040519081016040528092919081815260200182805461028290610797565b80156102cf5780601f106102a4576101008083540402835291602001916102cf565b820191906000526020600020905b8154815290600101906020018083116102b257829003601f168201915b505050506003830154600484015460059094015492936001600160a01b039091169290915060ff1686565b6001600160a01b03811660009081526001602090815260409182902080548351818402810184019094528084526060939283018282801561035a57602002820191906000526020600020905b815481526020019060010190808311610346575b50505050509050919050565b6000818152602081905260409020600301546001600160a01b031633146103bd5760405162461bcd60e51b815260206004820152600b60248201526a2737ba1031b932b0ba37b960a91b6044820152606401610188565b600081815260208190526040808220600501805460ff191690555182917f86618ed9a8bb803e1a820a2b64c8cb57db53d96f30087d61b156724b5806fd8691a250565b6002805460009182610411836108e2565b90915550506040805160c081018252600280548083526020808401888152848601888152336060870152426080870152600160a0870181905260009485529284905295909220845181559151908201559251919291908201906104749082610822565b5060608201516003820180546001600160a01b0319166001600160a01b039092169190911790556080820151600482015560a0909101516005909101805460ff19169115159190911790553360008181526001602081815260408084206002805482549586018355918652948390209093019290925591548151878152928301939093527fc5f362eb8a4eaf661c3b2e0c974fd469b4b7d95f27bcd3ff25cd7338008b9950910160405180910390a25060025492915050565b6001602052816000526040600020818154811061054957600080fd5b90600052602060002001600091509150505481565b634e487b7160e01b600052604160045260246000fd5b600082601f83011261058557600080fd5b813567ffffffffffffffff808211156105a0576105a061055e565b604051601f8301601f19908116603f011681019082821181831017156105c8576105c861055e565b816040528381528660208588010111156105e157600080fd5b836020870160208301376000602085830101528094505050505092915050565b6000806040838503121561061457600080fd5b82359150602083013567ffffffffffffffff81111561063257600080fd5b61063e85828601610574565b9150509250929050565b60006020828403121561065a57600080fd5b5035919050565b8681526000602087602084015260c0604084015286518060c085015260005b8181101561069c5788810183015185820160e001528201610680565b50600060e0828601015260e0601f19601f830116850101925050506106cc60608301866001600160a01b03169052565b8360808301526106e060a083018415159052565b979650505050505050565b80356001600160a01b038116811461070257600080fd5b919050565b60006020828403121561071957600080fd5b610722826106eb565b9392505050565b6020808252825182820181905260009190848201906040850190845b8181101561076157835183529284019291840191600101610745565b50909695505050505050565b6000806040838503121561078057600080fd5b610789836106eb565b946020939093013593505050565b600181811c908216806107ab57607f821691505b6020821081036107cb57634e487b7160e01b600052602260045260246000fd5b50919050565b601f82111561081d576000816000526020600020601f850160051c810160208610156107fa5750805b601f850160051c820191505b8181101561081957828155600101610806565b5050505b505050565b815167ffffffffffffffff81111561083c5761083c61055e565b6108508161084a8454610797565b846107d1565b602080601f831160018114610885576000841561086d5750858301515b600019600386901b1c1916600185901b178555610819565b600085815260208120601f198616915b828110156108b457888601518255948401946001909101908401610895565b50858210156108d25787850151600019600388901b60f8161c191681555b5050505050600190811b01905550565b60006001820161090257634e487b7160e01b600052601160045260246000fd5b506001019056fea264697066735822122053846ba5b0a861b5af977abe92bf17e337667d1712cac1e27b5cbba9a80f4ee964736f6c63430008180033",
  "linkReferences": {},
  "deployedLinkReferences": {}
}