{
  "_format": "hh-sol-artifact-1",
  "contractName": "TaskManager",
  "sourceName": "contracts/crud/TaskManager_1767950106.sol",
  "abi": [
    {
      "anonymous": false,
      "inputs": [
        {
          "indexed": true,
          "internalType": "uint256",
          "name": "taskId",
          "type": "uint256"
        }
      ],
      "name": "TaskCompleted",
      "type": "event"
    },
    {
      "anonymous": false,
      "inputs": [
        {
          "indexed": true,
          "internalType": "uint256",
          "name": "taskId",
          "type": "uint256"
        },
        {
          "indexed": false,
          "internalType": "string",
          "name": "title",
          "type": "string"
        },
        {
          "indexed": false,
          "internalType": "address",
          "name": "assignedTo",
          "type": "address"
        }
      ],
      "name": "TaskCreated",
      "type": "event"
    },
    {
      "anonymous": false,
      "inputs": [
        {
          "indexed": true,
          "internalType": "uint256",
          "name": "taskId",
          "type": "uint256"
        },
        {
          "indexed": false,
          "internalType": "enum TaskManager.TaskStatus",
          "name": "status",
          "type": "uint8"
        }
      ],
      "name": "TaskUpdated",
      "type": "event"
    },
    {
      "inputs": [
        {
          "internalType": "string",
          "name": "_title",
          "type": "string"
        },
        {
          "internalType": "string",
          "name": "_desc",
          "type": "string"
        },
        {
          "internalType": "address",
          "name": "_assignee",
          "type": "address"
        },
        {
          "internalType": "uint256",
          "name": "_deadline",
          "type": "uint256"
        }
      ],
      "name": "createTask",
      "outputs": [
        {
          "internalType": "uint256",
          "name": "",
          "type": "uint256"
        }
      ],
      "stateMutability": "nonpayable",
      "type": "function"
    },
    {
      "inputs": [
        {
          "internalType": "uint256",
          "name": "_taskId",
          "type": "uint256"
        }
      ],
      "name": "getTask",
      "outputs": [
        {
          "components": [
            {
              "internalType": "uint256",
              "name": "id",
              "type": "uint256"
            },
            {
              "internalType": "string",
              "name": "title",
              "type": "string"
            },
            {
              "internalType": "string",
              "name": "description",
              "type": "string"
            },
            {
              "internalType": "enum TaskManager.TaskStatus",
              "name": "status",
              "type": "uint8"
            },
            {
              "internalType": "address",
              "name": "assignedTo",
              "type": "address"
            },
            {
              "internalType": "uint256",
              "name": "deadline",
              "type": "uint256"
            },
            {
              "internalType": "uint256",
              "name": "createdAt",
              "type": "uint256"
            }
          ],
          "internalType": "struct TaskManager.Task",
          "name": "",
          "type": "tuple"
        }
      ],
      "stateMutability": "view",
      "type": "function"
    },
    {
      "inputs": [
        {
          "internalType": "enum TaskManager.TaskStatus",
          "name": "_status",
          "type": "uint8"
        }
      ],
      "name": "getTasksByStatus",
      "outputs": [
        {
          "components": [
            {
              "internalType": "uint256",
              "name": "id",
              "type": "uint256"
            },
            {
              "internalType": "string",
              "name": "title",
              "type": "string"
            },
            {
              "internalType": "string",
              "name": "description",
              "type": "string"
            },
            {
              "internalType": "enum TaskManager.TaskStatus",
              "name": "status",
              "type": "uint8"
            },
            {
              "internalType": "address",
              "name": "assignedTo",
              "type": "address"
            },
            {
              "internalType": "uint256",
              "name": "deadline",
              "type": "uint256"
            },
            {
              "internalType": "uint256",
              "name": "createdAt",
              "type": "uint256"
            }
          ],
          "internalType": "struct TaskManager.Task[]",
          "name": "",
          "type": "tuple[]"
        }
      ],
      "stateMutability": "view",
      "type": "function"
    },
    {
      "inputs": [],
      "name": "taskCount",
      "outputs": [
        {
          "internalType": "uint256",
          "name": "",
          "type": "uint256"
        }
      ],
      "stateMutability": "view",
      "type": "function"
    },
    {
      "inputs": [
        {
          "internalType": "uint256",
          "name": "",
          "type": "uint256"
        }
      ],
      "name": "tasks",
      "outputs": [
        {
          "internalType": "uint256",
          "name": "id",
          "type": "uint256"
        },
        {
          "internalType": "string",
          "name": "title",
          "type": "string"
        },
        {
          "internalType": "string",
          "name": "description",
          "type": "string"
        },
        {
          "internalType": "enum TaskManager.TaskStatus",
          "name": "status",
          "type": "uint8"
        },
        {
          "internalType": "address",
          "name": "assignedTo",
          "type": "address"
        },
        {
          "internalType": "uint256",
          "name": "deadline",
          "type": "uint256"
        },
        {
          "internalType": "uint256",
          "name": "createdAt",
          "type": "uint256"
        }
      ],
      "stateMutability": "view",
      "type": "function"
    },
    {
      "inputs": [
        {
          "internalType": "uint256",
          "name": "_taskId",
          "type": "uint256"
        },
        {
          "internalType": "enum TaskManager.TaskStatus",
          "name": "_status",
          "type": "uint8"
        }
      ],
      "name": "updateTaskStatus",
      "outputs": [],
      "stateMutability": "nonpayable",
      "type": "function"
    }
  ],
  "bytecode": "0x608060405234801561001057600080fd5b50610f34806100206000396000f3fe608060405234801561001057600080fd5b50600436106100625760003560e01c806307f52ad8146100675780631579259b1461008d5780631d65e77e146100ad5780638d977672146100cd578063ab9b6811146100f3578063b6cb58a514610108575b600080fd5b61007a610075366004610a5f565b610111565b6040519081526020015b60405180910390f35b6100a061009b366004610afd565b61025d565b6040516100849190610c1a565b6100c06100bb366004610c7e565b61055d565b6040516100849190610c97565b6100e06100db366004610c7e565b61070f565b6040516100849796959493929190610caa565b610106610101366004610d0c565b610868565b005b61007a60015481565b600180546000918261012283610d38565b90915550506040805160e0810182526001805480835260208084018a81528486018a90526000606086018190526001600160a01b038a16608087015260a086018990524260c0870152928352908290529390208251815592519192919082019061018c9082610dea565b50604082015160028201906101a19082610dea565b5060608201518160030160006101000a81548160ff021916908360038111156101cc576101cc610b65565b021790555060808201516003820180546001600160a01b0390921661010002610100600160a81b031990921691909117905560a0820151600482015560c0909101516005909101556001546040517fdc691e972cb25fd6e968744b5a6416d42a052ac1305e3b7ed6777b621304b7f2906102499088908790610eaa565b60405180910390a250600154949350505050565b6060600060015b60015481116102cb5783600381111561027f5761027f610b65565b600082815260208190526040902060039081015460ff16908111156102a6576102a6610b65565b036102b957816102b581610d38565b9250505b806102c381610d38565b915050610264565b5060008167ffffffffffffffff8111156102e7576102e76109bc565b60405190808252806020026020018201604052801561032057816020015b61030d610965565b8152602001906001900390816103055790505b509050600060015b60015481116105535785600381111561034357610343610b65565b600082815260208190526040902060039081015460ff169081111561036a5761036a610b65565b036105415760008181526020818152604091829020825160e081019093528054835260018101805491928401916103a090610d5f565b80601f01602080910402602001604051908101604052809291908181526020018280546103cc90610d5f565b80156104195780601f106103ee57610100808354040283529160200191610419565b820191906000526020600020905b8154815290600101906020018083116103fc57829003601f168201915b5050505050815260200160028201805461043290610d5f565b80601f016020809104026020016040519081016040528092919081815260200182805461045e90610d5f565b80156104ab5780601f10610480576101008083540402835291602001916104ab565b820191906000526020600020905b81548152906001019060200180831161048e57829003601f168201915b505050918352505060038281015460209092019160ff16908111156104d2576104d2610b65565b60038111156104e3576104e3610b65565b8152600382015461010090046001600160a01b0316602082015260048201546040820152600590910154606090910152835184908490811061052757610527610ed4565b6020026020010181905250818061053d90610d38565b9250505b8061054b81610d38565b915050610328565b5090949350505050565b610565610965565b60008281526020818152604091829020825160e0810190935280548352600181018054919284019161059690610d5f565b80601f01602080910402602001604051908101604052809291908181526020018280546105c290610d5f565b801561060f5780601f106105e45761010080835404028352916020019161060f565b820191906000526020600020905b8154815290600101906020018083116105f257829003601f168201915b5050505050815260200160028201805461062890610d5f565b80601f016020809104026020016040519081016040528092919081815260200182805461065490610d5f565b80156106a15780601f10610676576101008083540402835291602001916106a1565b820191906000526020600020905b81548152906001019060200180831161068457829003601f168201915b505050918352505060038281015460209092019160ff16908111156106c8576106c8610b65565b60038111156106d9576106d9610b65565b8152600382015461010090046001600160a01b031660208201526004820154604082015260059091015460609091015292915050565b6000602081905290815260409020805460018201805491929161073190610d5f565b80601f016020809104026020016040519081016040528092919081815260200182805461075d90610d5f565b80156107aa5780601f1061077f576101008083540402835291602001916107aa565b820191906000526020600020905b81548152906001019060200180831161078d57829003601f168201915b5050505050908060020180546107bf90610d5f565b80601f01602080910402602001604051908101604052809291908181526020018280546107eb90610d5f565b80156108385780601f1061080d57610100808354040283529160200191610838565b820191906000526020600020905b81548152906001019060200180831161081b57829003601f168201915b5050505060038301546004840154600590940154929360ff8216936101009092046001600160a01b031692509087565b6001548211156108ad5760405162461bcd60e51b815260206004820152600c60248201526b496e76616c6964207461736b60a01b604482015260640160405180910390fd5b600082815260208190526040902060039081018054839260ff199091169060019084908111156108df576108df610b65565b0217905550817f2da408880f35ba4c128d53d978436383214730e9e4f141928a16650273b3c32a826040516109149190610eea565b60405180910390a2600281600381111561093057610930610b65565b036109615760405182907fc1fa7142cfb933d0855114a3bffde296944c30b727f297c14d0db4d553d3a5c790600090a25b5050565b6040518060e001604052806000815260200160608152602001606081526020016000600381111561099857610998610b65565b815260200160006001600160a01b0316815260200160008152602001600081525090565b634e487b7160e01b600052604160045260246000fd5b600082601f8301126109e357600080fd5b813567ffffffffffffffff808211156109fe576109fe6109bc565b604051601f8301601f19908116603f01168101908282118183101715610a2657610a266109bc565b81604052838152866020858801011115610a3f57600080fd5b836020870160208301376000602085830101528094505050505092915050565b60008060008060808587031215610a7557600080fd5b843567ffffffffffffffff80821115610a8d57600080fd5b610a99888389016109d2565b95506020870135915080821115610aaf57600080fd5b50610abc878288016109d2565b93505060408501356001600160a01b0381168114610ad957600080fd5b9396929550929360600135925050565b803560048110610af857600080fd5b919050565b600060208284031215610b0f57600080fd5b610b1882610ae9565b9392505050565b6000815180845260005b81811015610b4557602081850181015186830182015201610b29565b506000602082860101526020601f19601f83011685010191505092915050565b634e487b7160e01b600052602160045260246000fd5b60048110610b9957634e487b7160e01b600052602160045260246000fd5b9052565b805182526000602082015160e06020850152610bbc60e0850182610b1f565b905060408301518482036040860152610bd58282610b1f565b9150506060830151610bea6060860182610b7b565b506080838101516001600160a01b03169085015260a0838101519085015260c09283015192909301919091525090565b600060208083016020845280855180835260408601915060408160051b87010192506020870160005b82811015610c7157603f19888603018452610c5f858351610b9d565b94509285019290850190600101610c43565b5092979650505050505050565b600060208284031215610c9057600080fd5b5035919050565b602081526000610b186020830184610b9d565b87815260e060208201526000610cc360e0830189610b1f565b8281036040840152610cd58189610b1f565b915050610ce56060830187610b7b565b6001600160a01b0394909416608082015260a081019290925260c090910152949350505050565b60008060408385031215610d1f57600080fd5b82359150610d2f60208401610ae9565b90509250929050565b600060018201610d5857634e487b7160e01b600052601160045260246000fd5b5060010190565b600181811c90821680610d7357607f821691505b602082108103610d9357634e487b7160e01b600052602260045260246000fd5b50919050565b601f821115610de5576000816000526020600020601f850160051c81016020861015610dc25750805b601f850160051c820191505b81811015610de157828155600101610dce565b5050505b505050565b815167ffffffffffffffff811115610e0457610e046109bc565b610e1881610e128454610d5f565b84610d99565b602080601f831160018114610e4d5760008415610e355750858301515b600019600386901b1c1916600185901b178555610de1565b600085815260208120601f198616915b82811015610e7c57888601518255948401946001909101908401610e5d565b5085821015610e9a5787850151600019600388901b60f8161c191681555b5050505050600190811b01905550565b604081526000610ebd6040830185610b1f565b905060018060a01b03831660208301529392505050565b634e487b7160e01b600052603260045260246000fd5b60208101610ef88284610b7b565b9291505056fea2646970667358221220a8f4bf1e8f1b30f03bb5755f38db89310a5850f05e4b9ce2f480f4739024191064736f6c63430008180033",
  "linkReferences": {},
  "deployedLinkReferences": {}
}