{
  "_format": "hh-sol-artifact-1",
  "contractName": "Analytics",
  "sourceName": "contracts/utils/Analytics_1767903697.sol",
  "abi": [
    {
      "anonymous": false,
      "inputs": [
        {
          "indexed": true,
          "internalType": "bytes32",
          "name": "metricKey",
          "type": "bytes32"
        },
        {
          "indexed": false,
          "internalType": "uint256",
          "name": "value",
          "type": "uint256"
        },
        {
          "indexed": false,
          "internalType": "uint256",
          "name": "timestamp",
          "type": "uint256"
        }
      ],
      "name": "MetricRecorded",
      "type": "event"
    },
    {
      "inputs": [
        {
          "internalType": "string",
          "name": "_name",
          "type": "string"
        }
      ],
      "name": "getLatestMetric",
      "outputs": [
        {
          "components": [
            {
              "internalType": "string",
              "name": "name",
              "type": "string"
            },
            {
              "internalType": "uint256",
              "name": "value",
              "type": "uint256"
            },
            {
              "internalType": "uint256",
              "name": "timestamp",
              "type": "uint256"
            }
          ],
          "internalType": "struct Analytics.Metric",
          "name": "",
          "type": "tuple"
        }
      ],
      "stateMutability": "view",
      "type": "function"
    },
    {
      "inputs": [
        {
          "internalType": "string",
          "name": "_name",
          "type": "string"
        }
      ],
      "name": "getMetrics",
      "outputs": [
        {
          "components": [
            {
              "internalType": "string",
              "name": "name",
              "type": "string"
            },
            {
              "internalType": "uint256",
              "name": "value",
              "type": "uint256"
            },
            {
              "internalType": "uint256",
              "name": "timestamp",
              "type": "uint256"
            }
          ],
          "internalType": "struct Analytics.Metric[]",
          "name": "",
          "type": "tuple[]"
        }
      ],
      "stateMutability": "view",
      "type": "function"
    },
    {
      "inputs": [
        {
          "internalType": "bytes32",
          "name": "",
          "type": "bytes32"
        },
        {
          "internalType": "uint256",
          "name": "",
          "type": "uint256"
        }
      ],
      "name": "metrics",
      "outputs": [
        {
          "internalType": "string",
          "name": "name",
          "type": "string"
        },
        {
          "internalType": "uint256",
          "name": "value",
          "type": "uint256"
        },
        {
          "internalType": "uint256",
          "name": "timestamp",
          "type": "uint256"
        }
      ],
      "stateMutability": "view",
      "type": "function"
    },
    {
      "inputs": [
        {
          "internalType": "string",
          "name": "_name",
          "type": "string"
        },
        {
          "internalType": "uint256",
          "name": "_value",
          "type": "uint256"
        }
      ],
      "name": "recordMetric",
      "outputs": [],
      "stateMutability": "nonpayable",
      "type": "function"
    }
  ],
  "bytecode": "0x608060405234801561001057600080fd5b50610986806100206000396000f3fe608060405234801561001057600080fd5b506004361061004c5760003560e01c8063439a54b91461005157806361a7cc301461006657806384127b631461008f578063c426cdcf146100af575b600080fd5b61006461005f3660046105e0565b6100d1565b005b610079610074366004610625565b6101a6565b60405161008691906106e7565b60405180910390f35b6100a261009d366004610625565b6102da565b604051610086919061074b565b6100c26100bd366004610765565b61046e565b60405161008693929190610787565b6000826040516020016100e491906107ac565b60408051601f19818403018152828252805160209182012060008181528083528381206060860185528886528584018890524294860194909452835460018101855593815291909120835191945060039092029091019081906101479082610853565b5060208201518160010155604082015181600201555050807fa4e648fad32d0a2e29ba143aa3c2f42c519ff6109f280335e08025027b3980518342604051610199929190918252602082015260400190565b60405180910390a2505050565b60606000826040516020016101bb91906107ac565b60408051601f198184030181528282528051602091820120600081815280835283812080548085028701850190955284865291955090929184015b828210156102ce5783829060005260206000209060030201604051806060016040529081600082018054610229906107c8565b80601f0160208091040260200160405190810160405280929190818152602001828054610255906107c8565b80156102a25780601f10610277576101008083540402835291602001916102a2565b820191906000526020600020905b81548152906001019060200180831161028557829003601f168201915b5050505050815260200160018201548152602001600282015481525050815260200190600101906101f6565b50505050915050919050565b6102fe60405180606001604052806060815260200160008152602001600081525090565b60008260405160200161031191906107ac565b60408051601f19818403018152918152815160209283012060008181529283905291205490915061037b5760405162461bcd60e51b815260206004820152601060248201526f139bc81b595d1c9a58dcc8199bdd5b9960821b604482015260640160405180910390fd5b6000818152602081905260409020805461039790600190610913565b815481106103a7576103a761093a565b90600052602060002090600302016040518060600160405290816000820180546103d0906107c8565b80601f01602080910402602001604051908101604052809291908181526020018280546103fc906107c8565b80156104495780601f1061041e57610100808354040283529160200191610449565b820191906000526020600020905b81548152906001019060200180831161042c57829003601f168201915b5050505050815260200160018201548152602001600282015481525050915050919050565b6000602052816000526040600020818154811061048a57600080fd5b9060005260206000209060030201600091509150508060000180546104ae906107c8565b80601f01602080910402602001604051908101604052809291908181526020018280546104da906107c8565b80156105275780601f106104fc57610100808354040283529160200191610527565b820191906000526020600020905b81548152906001019060200180831161050a57829003601f168201915b5050505050908060010154908060020154905083565b634e487b7160e01b600052604160045260246000fd5b600082601f83011261056457600080fd5b813567ffffffffffffffff8082111561057f5761057f61053d565b604051601f8301601f19908116603f011681019082821181831017156105a7576105a761053d565b816040528381528660208588010111156105c057600080fd5b836020870160208301376000602085830101528094505050505092915050565b600080604083850312156105f357600080fd5b823567ffffffffffffffff81111561060a57600080fd5b61061685828601610553565b95602094909401359450505050565b60006020828403121561063757600080fd5b813567ffffffffffffffff81111561064e57600080fd5b61065a84828501610553565b949350505050565b60005b8381101561067d578181015183820152602001610665565b50506000910152565b6000815180845261069e816020860160208601610662565b601f01601f19169290920160200192915050565b60008151606084526106c76060850182610686565b905060208301516020850152604083015160408501528091505092915050565b600060208083016020845280855180835260408601915060408160051b87010192506020870160005b8281101561073e57603f1988860301845261072c8583516106b2565b94509285019290850190600101610710565b5092979650505050505050565b60208152600061075e60208301846106b2565b9392505050565b6000806040838503121561077857600080fd5b50508035926020909101359150565b60608152600061079a6060830186610686565b60208301949094525060400152919050565b600082516107be818460208701610662565b9190910192915050565b600181811c908216806107dc57607f821691505b6020821081036107fc57634e487b7160e01b600052602260045260246000fd5b50919050565b601f82111561084e576000816000526020600020601f850160051c8101602086101561082b5750805b601f850160051c820191505b8181101561084a57828155600101610837565b5050505b505050565b815167ffffffffffffffff81111561086d5761086d61053d565b6108818161087b84546107c8565b84610802565b602080601f8311600181146108b6576000841561089e5750858301515b600019600386901b1c1916600185901b17855561084a565b600085815260208120601f198616915b828110156108e5578886015182559484019460019091019084016108c6565b50858210156109035787850151600019600388901b60f8161c191681555b5050505050600190811b01905550565b8181038181111561093457634e487b7160e01b600052601160045260246000fd5b92915050565b634e487b7160e01b600052603260045260246000fdfea2646970667358221220ab3ac96f63df98ae15527dc637c5a66c40ed3f458505768e3e85e51ebc55f32764736f6c63430008180033",
  "linkReferences": {},
  "deployedLinkReferences": {}
}