{
  "_format": "hh-sol-artifact-1",
  "contractName": "InitialContract",
  "sourceName": "contracts/crud/InitialContract_1767826518.sol",
  "abi": [
    {
      "inputs": [],
      "name": "counter",
      "outputs": [
        {
          "internalType": "uint256",
          "name": "",
          "type": "uint256"
        }
      ],
      "stateMutability": "view",
      "type": "function"
    },
    {
      "inputs": [],
      "name": "getCounter",
      "outputs": [
        {
          "internalType": "uint256",
          "name": "",
          "type": "uint256"
        }
      ],
      "stateMutability": "view",
      "type": "function"
    },
    {
      "inputs": [],
      "name": "increment",
      "outputs": [],
      "stateMutability": "nonpayable",
      "type": "function"
    }
  ],
  "bytecode": "0x608060405234801561001057600080fd5b5060da8061001f6000396000f3fe6080604052348015600f57600080fd5b5060043610603c5760003560e01c806361bc221a1460415780638ada066e14605b578063d09de08a146062575b600080fd5b604960005481565b60405190815260200160405180910390f35b6000546049565b6068606a565b005b600080549080607783607e565b9190505550565b600060018201609d57634e487b7160e01b600052601160045260246000fd5b506001019056fea26469706673582212202f440deb8085209bf514ad986848a5f9fae95502d82d6e1b87d0959a9857ae3664736f6c63430008180033",
  "linkReferences": {},
  "deployedLinkReferences": {}
}